:020000040C00EE
:100000000008001001020008B1020008F103000816
:10001000F10A0008F3030008F503000800000000DF
:10002000000000000000000000000000B102000815
:10003000B102000800000000B1020008B10200088F
:10004000B1020008B1020008B1020008B1020008C4
:10005000B1020008B1020008B1020008B1020008B4
:10006000B1020008000000000000000000000000D5
:10007000B102000800000000B1020008B10200084F
:10008000B1020008B1020008B1020008B102000884
:10009000B1020008B1020008B1020008B102000874
:1000A000B1020008B1020008B1020008B102000864
:1000B000B1020008B1020008B1020008B102000854
:1000C000B1020008B1020008B1020008B102000844
:1000D000B1020008B1020008B1020008B102000834
:1000E000B1020008B1020008B1020008B102000824
:1000F000B1020008B1020008B1020008B102000814
:10010000B1020008B1020008B1020008B102000803
:10011000B1020008B1020008B1020008B1020008F3
:10012000B1020008B1020008B1020008B1020008E3
:10013000B1020008B1020008B1020008B1020008D3
:10014000B1020008B1020008B1020008B1020008C3
:10015000B1020008B1020008B1020008B1020008B3
:10016000000000000000000000000000000000008F
:10017000B1020008B1020008B1020008B102000893
:10018000B1020008B1020008B1020008B102000883
:10019000B1020008B1020008B1020008B102000873
:1001A000B1020008B1020008B1020008B102000863
:1001B000B1020008B1020008B1020008B102000853
:1001C000B1020008B1020008B1020008B102000843
:1001D000B1020008B1020008B102000800000000EE
:1001E000B1020008B1020008B1020008F9030008DA
:1001F000B102000800000000B10200080000000089
:10020000DFF88CD023488047234C244DAC4209DAD8
:1002100021686268A368043BA2BFC858D050FAE7BF
:100220000C34F3E71E4B1F4CA34208DA19685A68D6
:100230000020043AA4BF8850FBE70833F4E71A48CB
:1002400080471A4880470000D055000C000000206D
:1002500078080000485E000C00000030000000003C
:10026000D055000C0008001000000000D055000C14
:100270000008001000000000780800203C07000083
:1002800000000030000E0000000800100000000018
:1002900000080010F1450008480200087802000834
:1002A0007802000890020008D9460008B50200084C
:1002B000FEE7000030B58BB0264B1B680993264A39
:1002C00007AB92E8030083E803000023049305933F
:1002D00006930293039300F097F8204D22E0182034
:1002E00004F01EFA0690002404F0C6FD069B185583
:1002F0000134182CF8D11DE0059800F06BFA03903A
:1003000002A800F00FFA049804F012FA00240494F2
:10031000029804F00DFA029400F00CFCA8B12846F3
:1003200000F02AFC04A800F0EBF90028F4D1069BA9
:10033000002BD4D007AB0093069B059A049902A822
:1003400000F01AFA0028DED1D6E7002000F014FCF5
:10035000E8E700BF6C5500083C530008EFBEADDE77
:10036000F0B589B000250495059550238DF80C3023
:1003700002278DF80D7004268DF80E6001248DF88B
:100380000F408DF812404FF4803306938DF81C40D7
:100390008DF81D408DF81E408DF81F4003A803F016
:1003A000A7FA02F09FFF4021384602F0AFFF304627
:1003B00002F030FF284602F0AFFE204602F056FF62
:1003C00004F000F8084A6B4607CA83E8070000F00B
:1003D0004AFB204600F023FB044A136843F4400321
:1003E000136009B0F0BD00BF4453000818820248F2
:1003F000FEE7FEE7FEE7000008B5024801F078FDE1
:1004000008BD00BF0000002008B5174800F05EFFDF
:10041000164BDA68C2F30222C2F10701062928BF8F
:100420000621931D062B8CBF02F1FF3200224FF0F4
:10043000FF338B40DB4303F03F0393409B00DBB271
:100440000B4A82F86B334FF40063C2F88C31D360EF
:10045000054B4FF416529A62082283F82E20054B62
:100460001B68DB68984708BD0000002000ED00E035
:1004700000E100E0B40B00207047704708B5084B5E
:1004800093F83E3113F0010F00D108BDFFF7BCFF18
:10049000034B93F83E216FF3000283F83E21F4E70B
:1004A000B40B002008B540220C49812000F054FF15
:1004B00040220B49822000F04FFF402209490320CF
:1004C00000F04AFF084801F0A3FF084A92F83E31C5
:1004D00043F0010382F83E3108BD00BF340900201B
:1004E00074090020F408002010000020B40B002044
:1004F00008B5024802F056F908BD00BF1000002000
:100500007047704770470000030A022B0AD0032B84
:100510000BD0012B02D00020034601E012200C4B2F
:10052000136070473E200B4BFAE7C0B2012808D099
:1005300020B1022808D000200346F1E70420064B32
:10054000EEE75820054BEBE72020054BE8E700BF1E
:100550005053000864530008A4530008D053000807
:10056000AC53000810B5074C02E0204602F024F816
:10057000204602F04BF80028F7D0024802F080F83D
:1005800010BD00BF10000020F0B593B00746354BFA
:100590001B6811932422002108A804F00FFC0025F9
:1005A000019502950395049505950695CDF81B5088
:1005B0001B230093FFF7D6FF0446FF280DDD232DF4
:1005C000F8D9FFF7CFFF022819D00220119A254B46
:1005D0001B689A4244D113B0F0BD022838D0C6B28D
:1005E000304600F07BF908B93D2C33D16B1C12AAC0
:1005F000154405F8286C232BE3D81D46DAE76B4633
:1006000001AA242108A800F073F928B3009B1B2B32
:1006100001D00220DAE79DF806209DF805301B0284
:1006200043EA02439DF8042013437B60182004F042
:1006300077F8B86090B112AD044655F8410D69687D
:10064000AA68EB680FC42869696903C40020BDE784
:100650000220BBE70120B9E70320B7E70420B5E794
:1006600000F056FA6C5500082DE9F04782B00646B6
:10067000D0F80480002400940121404603F0EAFFF2
:10068000019458B3074600F1FF3925467368AB4221
:1006900026D9FFF767FF0446FF28F7DC03282BD095
:1006A0005FFA80FA504600F019F908B93D2C25D1BF
:1006B000013509F801AFE9E76B4601AA4146384622
:1006C00000F088F930B1009B7360019B23B1336067
:1006D00000240AE0072408E0052406E0052407E0DA
:1006E000FFF740FF0328E7D00624384604F020F83F
:1006F000204602B0BDE8F0870624F6E70124F4E7BF
:1007000010B50446FFF72EFF0128FBD12046FFF766
:100710003BFF034608B1184610BD2046FFF7A4FF73
:100720000346F8E730B583B0044602AA002342F836
:10073000043D4168006800F0ADF80546019B83B1B7
:100740000C4C0221204601F0CBFEAAB201992046B2
:1007500001F0A4FE0321204601F0C2FE002003B0F8
:1007600030BD636823B1002814BF08200920F6E7D4
:100770000820F4E710000020F0B5A3B005461446A9
:100780001F46289E124B1B68219301A804F07CFA97
:100790003B7803F00703F05C0DF103030DF18301D7
:1007A00013F8012F42401A708B42F9D1204603F012
:1007B000B7FF2860224601A904F066FA0020219ABA
:1007C000034B1B689A4201D123B0F0BD00F0A0F9A1
:1007D0006C55000870470000002954D0F0B50F4652
:1007E000EBB101788C082A4D2C5D1470012B16D0CA
:1007F0003D25274C4FF0000E1EE001F03F01615CEB
:100800005170022B0BD026BB9570032B07D00432FE
:1008100002F8015C043B02D016B900231370F0BD4E
:10082000771EFAD010F8031F4FEA910C14F80CC091
:1008300082F800C0012BF2D009017E1EDDD090F8B5
:1008400001C001EB1C1101F03F01615C5170022BF2
:10085000E5D041788900BE1E1ABF8778BF09774668
:10086000394401F03F01615C9170032BD7D0002E19
:10087000CDD00432817801F03F01615C02F8011CA7
:10088000043BCDD1CBE70BB100231370704700BF01
:100890002C5400082DE9F0418C1C0F4BA3FB0434B1
:1008A0006408A400651CA94204D9002515602846E7
:1008B000BDE8F08117460E468046284603F030FF1B
:1008C00038600028F3D02B46024631464046FFF7F9
:1008D00083FF2546EBE700BFABAAAAAA034B184447
:1008E00090F84000C043C0F3C01070472C5400087B
:1008F0002DE9F041D3F800C0012963D90578344CC3
:100900002C4494F94060002E5EDB4578304C2C443A
:1009100094F940E0BEF1000F58DB65462C4F21E012
:10092000042903D1E2783D2A00D10439ACEB050556
:100930001D60B1FA81F04009BDE8F0810429F4D0CE
:10094000F4E704390129F1D926793E4496F940604B
:10095000002EEBDB64793C4494F940E00430BEF1B6
:10096000000FE3DB044635B14FEA2E1848EA86064D
:100970001670013D01320229D8D0A6783D2ECFD085
:100980003E4496F94080B8F1000FCFDB3DB14FEA0D
:10099000A80646EA0E1E82F800E0013D0132032956
:1009A000C4D0E6783D2EC9D03E4496F94060002E72
:1009B000BCDB002DC5D046EA881882F80080013DD6
:1009C0000132BEE76546B1E76546AFE76546ADE78C
:1009D0002C540008F0B583B007460C4615461E4659
:1009E000880800EB40000230019003F099FE286077
:1009F00088B101AB024621463846FFF779FF04462D
:100A000018B14EB1019B336006E0286803F090FEF8
:100A100000232B6000E00124204603B0F0BDBFF3AB
:100A20004F8FBFF36F8F4FF0E023D3F8943D002832
:100A300014BF0522012213434FF0E022C2F8943D77
:100A4000BFF34F8FBFF36F8F7047BFF34F8FBFF36D
:100A50006F8F4FF0E0230022C3F8942DBFF34F8F28
:100A6000BFF36F8F704770B485B004AB03E9070024
:100A7000019A029B9DF80C100E46092938BF0926E1
:100A8000B2F1805F08D3B2F1804F2AD3B2F1C04FE8
:100A900034BF0524072400E002249DF80D5005F022
:100AA00007054FF0E020C0F8985DD0F8A05D25F074
:100AB0000105C0F8A05DF240B240C0F89C2D1806B8
:100AC00000F0B850220471B90021C3F3C0130343EE
:100AD00013430B434FF0E022C2F8A03D05B070BCB9
:100AE00070470624D9E70139490001F03E01ECE7DF
:100AF0004FF0E023D3F8283D13F0800F1CBF4FF0D8
:100B0000E023D3F8343DFEE788B000BD1C6000BD93
:100B1000BFF34F8F0549CA6802F4E062044B1343E8
:100B2000CB60BFF34F8F00BFFDE700BF00ED00E0DB
:100B30000400FA050E4B1B780E4A526A12F4804FDD
:100B40000CBF43F0010223F0010209490A70094A6F
:100B5000526A12F4004F06490A780CBF42F00202B2
:100B600022F002020A70024A107820EA030070475D
:100B70007808002000810248214B984206D00323C8
:100B8000204A136102F58072136170472DE9F0412C
:100B90001D4C0021204603F021FA1C4F194E394606
:100BA000304603F039FA1A4D3946284603F034FA34
:100BB0004FF40043F363EB634FF6FF7373634FF43B
:100BC0007A436B634FF488532361DFF84C80114FF5
:100BD00042460021384603F055F942460121384685
:100BE00003F050F9E36843F00403E360E36843F083
:100BF0000803E3600123F360EB60BDE8F08100BF10
:100C0000EFBEADDE00C3004000C000403000002059
:100C100000C40040008102487055000810B5074C20
:100C200023685B6A012180209847012384F83B31C7
:100C300023689B6A18210020984710BDB40B002040
:100C400030B583B00023ADF80230A14B5C88FFF7CC
:100C50004FFCA04B93F83E3113F0020F58D0E4B292
:100C60009B4B5B780C2B00F27481DFE813F089005A
:100C70000D00720117017201D8005300FE004200FE
:100C8000E700700001016F01914B1B7803F0030333
:100C9000022B08D053BB8F4B93F83E216FF3820297
:100CA00083F83E212DE08A4B98888B4B1B78DBB272
:100CB000042B00D0B8B900F00F0386492C2202FBA8
:100CC0000312127A12F0010F0DD00A462C2101FBFB
:100CD0000323197A6FF38201197213685B6A00218A
:100CE000C0B298470DE0FFF799FF0AE0FFF796FFC3
:100CF00007E07A49A1F239131B681B6B012200201F
:100D00009847744A92F83E316FF3410382F83E31BE
:100D100003B030BD6E4B998801AAC9B25888FFF75D
:100D2000F3FB88B16A4AD488844228BF0446694DDF
:100D30002B681B6B2246019900209847241AAC624D
:100D4000019B0344EB62DCE7FFF768FFD9E7624BE6
:100D50001B78DBB2042B0BD15D4B9B8803F59C7396
:100D60005C490A68146B012219440020A047C8E7B7
:100D7000594B1B78DBB2032BC3D1FFF74FFFC0E702
:100D8000534B1B7813F0030311D1524A92F83E31B2
:100D9000C3F38001C3F3C00343EA410302A921F86E
:100DA000063D13681B6B022200209847A9E7012B20
:100DB00023D0022B30D1464B9B88474A1278D2B2BF
:100DC000042A00D043BB03F00F0342492C2202FB4C
:100DD0000312127A12F0010F1ED00A462C2101FBD9
:100DE00003231B7AC3F3800302A921F8063D13688D
:100DF0001B6B02220020984783E7374B1B78DBB23E
:100E0000042B09D1002002A921F8060D314B1B68E3
:100E10001B6B0222984774E7FFF700FF71E74CB99C
:100E20002D4B02221A702B4B1B689B690021204618
:100E3000984766E7284B03221A70F4E7254B83F89E
:100E40003941FFF72FFB1CB9234B03221A7058E7D7
:100E5000204B93F83E3113F0010F03D01E4B0422B8
:100E60001A704EE7FFF7DAFE4BE7FFF7D7FE48E7C9
:100E7000194B1B78DBB2042B08D0174B1B78DBB265
:100E8000032B7FF43EAFFFF7C9FE3AE7104A918883
:100E9000104B0B44528883F8382132E7022C13D0D0
:100EA0000D4B1B78DBB2042B1AD00B4B1B78DBB23B
:100EB000032B06D12CB9064B1B7803F00303022B3E
:100EC00037D0FFF7ABFE1CE7FFF7A8FE19E700BF1E
:100ED000040F0020B40B0020010F0020ED0C0020B7
:100EE00054B1012C7FF40DAF1B4A92F83E3143F010
:100EF000040382F83E3104E7184B988800F00F0392
:100F000015492C2202FB0312127A12F0010F0DD0A8
:100F100011492C2202FB03131A7A42F004021A72BE
:100F20000B685B6A0121C0B29847EAE6FFF776FEDC
:100F3000E7E60A4B9B88DBB2002BC2D1064A137A44
:100F400043F004031372FFF769FEDAE6FFF766FE6B
:100F5000D7E6FFF763FED4E6B40B0020040F0020B1
:100F600010B50D4B93F83B31022B09D10A4C236885
:100F70009B6A002108469847052384F83B310AE024
:100F8000032B08D1044C23689B6A182120799847C9
:100F9000012384F83B3110BDB40B002010B50F4B7A
:100FA00093F83B31042B0BD0052B08D10B4C236855
:100FB0009B6A182120799847012384F83B3110BDA2
:100FC000FFF73EFE054C23681B6B002211461046BE
:100FD0009847032384F83B31F1E700BFB40B0020AE
:100FE00010B51A4C2368DB6A08221949002098477B
:100FF00094F83E3143F0020384F83E31082800D0D3
:1010000010BD134BD98869B1114B93F90030002BF7
:1010100014DB0E4B042283F83B211B689B6A0020E3
:101020009847EDE7032384F83B31FFF709FE236877
:101030001B6B0022114610469847E1E7034B022242
:1010400083F83B21FFF7FCFDDAE700BFB40B00207B
:10105000040F00202DE9F041092847D8DFE800F00F
:101060005C544B4E0546867E4648454B02221A701C
:10107000444B012783F83B7193F83E216FF38202C2
:1010800083F83E2100241E464FF02C0801E0013475
:10109000013708FB04631A896FF304121A811A8955
:1010A0006FF3C3021A811A7A6FF382021A72002C4C
:1010B000EDD0D3B213F0010F0BD008FB04653368F9
:1010C0001B6A287998472B7A03F0FE036FF34103DC
:1010D0002B72062FDBDD2B4B002283F8392183F89E
:1010E00038211A68926A182118799047BDE8F08172
:1010F000FFF706FAFAE7FFF7BFF9F7E7204B0122FF
:101100001A70FFF7BAF9F1E700201D4B18701D4B5C
:101110001B681B6A9847E9E70125194B1D70194C9C
:101120004FF4A0720021204603F048FE164B2360C6
:1011300084F83B51154A22624FF48072626214496E
:101140006161A261032222722189402262F38C1123
:101150002181DB69002108469847C7E7094B93F8CE
:101160003A21074B1A70FFF7CCF9BFE7044B197807
:10117000044A82F83A1105221A70FFF7C3F9B5E75D
:10118000010F0020B40B00207C550008B40900209A
:10119000B40A0020F8B500F00F044A4B93F83C6104
:1011A00093F83D5183F83C4120F07F0083F83D01E6
:1011B000012915D039B1022938D0424B83F83C615E
:1011C00083F83D51F8BD3F4A2C2303FB04231A89C1
:1011D0006FF3C3021A81002CEFD1FFF701FFECE798
:1011E000384A2C2303FB04231A8942F020021A8177
:1011F000DB6863B9334B2C2707FB043700223A61C5
:101200001B68DB6ABA69796938799847F8602D4AB2
:101210002C2303FB042423896FF3C303238192F857
:101220003C31002BC9D1FFF7B9FEC6E7254A2C2374
:1012300003FB04239A6A7AB1224B2C2101FB04346C
:101240001B681B6BE16A20799847A26A121AA26296
:10125000E36A0344E362B5E71A4A2C2303FB042341
:10126000187910F00F0F1AD12C2303FB0423DB692C
:10127000ABB1154AD288934211D012492C2202FBFD
:1012800004121289C2F38612B3FBF2F102FB11338E
:101290002BB90C4B1B681B6B002211469847094B5E
:1012A0002C2202FB04340021E161228961F3041243
:1012B000228193F83C31002B7FF47FAFFFF750FE83
:1012C0007BE700BFB40B0020040F002038B50546B3
:1012D000164C4FF4A0720021204603F06FFD144B12
:1012E00000221A70134B2360012284F83B21124A1A
:1012F00022624FF48072626210496161A26103222E
:1013000022722289402161F38C1222815B68284677
:10131000984738B92368DB6940220021084698477E
:10132000002038BD4FF0FF30FBE700BFB40B0020BA
:10133000010F00207C550008B4090020B40A0020E9
:1013400008B5044B1B68DB6B9847003018BF0120C1
:1013500008BD00BFB40B002010B400F00F0310F064
:10136000800F06484FF02C0404FB030319BF1962D9
:101370005A6259619A615DF8044B7047B40B0020C2
:10138000244B03EB8003D3F8C4311B6813F4004FE4
:1013900000D170471F4A342303FB00235B6A002BF4
:1013A000F7D0F0B5D2F8E0715FEA910C0AD00023D3
:1013B000342505FB00253C686A6A42F82340013366
:1013C0009C45F8D121F00306B14217D03D6815D9EC
:1013D0004FEA8C039E1B06EB010E00240D4A3427B6
:1013E00007FB00274FF0FF0C0CFA04F22A40E24002
:1013F0007E6AF254083401337345F5D1054B34222B
:1014000002FB0030C36A0B44C362436A1944416261
:10141000F0BD00BFF80C002082B000230193019BB7
:1014200043F020030193019B60F38A1301930C4B5B
:10143000D3F8A031019A1A614FF47A73013BFDD1C0
:10144000074BD3F8A02113690193019B13F0200FE0
:10145000F9D140F2E933013BFDD102B0704700BF42
:10146000F80C002082B000230193019B43F010038D
:1014700001930B4BD3F8A02101991161D3F8A0215E
:101480004FF47A73013BFDD113690193019B13F073
:10149000100FF5D140F2E933013BFDD102B07047A6
:1014A000F80C002030B40021046B826A8368C3F317
:1014B0001203A51A9D4286BF9B188362846203783B
:1014C00013F00F0F2AD1012363F3D44141F0C0413F
:1014D00064F306011C4B1B685B7B4BB9037803F07C
:1014E0000F021A4B03EB8203D3F8C431426A5A61EC
:1014F000164A037803F00F0302EB8303D3F8C431D9
:101500001961037803F00F0302EB8302D2F8C421C0
:10151000136843F00443136030BC7047836A2BB9EF
:101520006FF31201012363F3DC41D3E7C26A9B1A14
:101530004268C2F3C6241A19013AB2FBF4F262F30C
:10154000DC4163F31201C5E7F40C0020F80C002025
:1015500070B40021037803F00F036A33304A52F865
:1015600023301A68056B846A8368C3F312032E1B49
:101570009E4232BF85621B198362836A33B304784B
:1015800014F00F0F3AD1012464F3DC41C46A1B1B31
:1015900063F31201234B1B685C7B44B9047804F0AD
:1015A0000F046A341E4D55F82440456A65615B7B23
:1015B000012B10D11A4BD3F8A4516E6B037803F0B2
:1015C0000F040123A34033436B6304E06FF3120164
:1015D000012363F3DC41124C037803F00F036A33F9
:1015E00054F82330196142F00442037803F00F03EA
:1015F0006A3354F823301A6070BC7047C56A5C1BAC
:1016000064F312014468C4F3C6245B1B651EADB2CB
:1016100015FA83F393FBF4F363F3DC41BAE700BFFD
:10162000F80C0020F40C00201F206FF3451040F44C
:10163000E070C0F308007047044BD3F8A42153684E
:101640006FF3410353600020704700BFF80C002087
:10165000044BD3F8A421536843F0020353600020E5
:10166000704700BFF80C002000F00F00134A34232D
:1016700003FB00235B6813F0100F1AD1342303FB24
:1016800000231B7913F0040F15D070B5342606FB28
:1016900000235A69914228BF114619630024DC6275
:1016A0009C62DA685A621C611846FFF7FBFE20460E
:1016B00070BD012070470120704700BFF80C00206A
:1016C000044BD3F8A4311A6811B960F30A121A60F6
:1016D00000207047F80C002000F00F0251B310F00A
:1016E000800F18D12A4B342101FB02F1595C01F023
:1016F0000F0103EB8103D3F8C4110B6843F400130B
:101700000B602349342303FB0212137943F02003B7
:101710001371002070471E49342303FB02F3CB5C96
:1017200003F00F036A3351F823100B6843F40013DE
:101730000B60E6E710F0800F19D1154B342101FB47
:1017400002F1595C01F00F0103EB8103D3F8C411DE
:101750000B6823F0815343F080530B600C4B342112
:1017600001FB023213796FF345131371D1E7084976
:10177000342303FB02F3CB5C03F00F036A3351F80D
:1017800023100B6823F0815343F080530B60E5E78F
:10179000F80C002000F00F00342303FB00F3114A83
:1017A000D356002B16DB0F4A342303FB00235A6861
:1017B0006FF304125A600B4A342303FB00231A7997
:1017C0006FF345121A710020186198619862D8620F
:1017D00018637047342303FB00235A686FF3C30276
:1017E0005A60E8E7F80C0020F0B500F00F00424C1A
:1017F000D4F8A431DB69342202FB0042127912F0E2
:10180000040F76D000211F46A646342505FB00F5BF
:101810006219645D04F00F044FF0010C0CFA04FC33
:101820006FF3CF3141F090416FF35551167906F0C7
:10183000FB066FF34516167156686FF30416566073
:1018400056686FF3C30656601EF90520002A06DBB2
:10185000342202FB00E2127912F0030F15D1264D5B
:101860006A3455F82420116023EA0C0262F30F0752
:10187000342202FB00F2AA56002A06DA342202FBC6
:101880000052127912F0030F16D11B4A342404FBC4
:1018900000F4145D04F00F0402EB8402D2F8C421BA
:1018A0001160C3F30F4323EA0C0363F31F47134B89
:1018B0001B685B7B012B14D00F4BD3F8A421D7619D
:1018C000342202FB00308188C1F38311012202FA25
:1018D00001F1B3F8FC2122EA0102A3F8FC21002067
:1018E000F0BD054BD3F8A421536B23EA0C035363DB
:1018F000E2E70120F4E700BFF80C0020F40C002020
:10190000034BD3F8A4319868C0F30D20704700BF93
:10191000F80C0020044B93F8FE0100F005000528A8
:1019200014BF002001207047F80C002008B50748BC
:10193000D0F8A421536843F0020353604FF40272BD
:10194000002103F03BFA002008BD00BFF80C002086
:101950002DE9F04F83B0074689461646DFF87082BE
:10196000D8F8A431DB6901939A4600F00F053422C0
:1019700002FB05FB0BEB08040021204603F01EFAD6
:101980000BF80870237943F004032371636866F34E
:10199000D1236360002F44D02146A4684FF6C07C59
:1019A0006CF312048C6018F80B3003F00F0318026C
:1019B000854A1418CC6102F5E0620244CA60834A89
:1019C00052F82300086202EB8302D2694A6117F0E1
:1019D000800F43D06A337E4A52F82340206840F497
:1019E000004069F39340B9F1000F00F0E28066F324
:1019F0000A0040F080506FF35550754BB3F8FC115E
:101A000011F0010F71D00123022211426FD0520058
:101A100092B20133DBB2072BF7D1114267D000231A
:101A200069E06B4A342303FB05F3D1188C68402727
:101A300067F312048C60D35C03F00F031802624A50
:101A40001418CC6102F5E0620244CA605F4A52F8A1
:101A50002300086202EB8302D2694A61B9F1000FE8
:101A600000F09E80342303FB05F3594AD356002B24
:101A700024DB574B342202FB05F29A5C02F00F0282
:101A800003EB8203D3F8C421136843F4004369F3E2
:101A9000934366F30A0343F080536FF35553136087
:101AA000342303FB05F54A4B5B5D03F00F02012372
:101AB0009340019A43EA124363F31F4A444BD3F81D
:101AC000A431C3F81CA0002003B0BDE8F08F082E9D
:101AD0008FD1032363F30A008BE7012363F30A002A
:101AE00087E7022363F30A0083E7002301220A4306
:101AF0003749A1F8FC2103F00F03354F342202FBD4
:101B000005F2B918B1F804C063F3891CA1F804C048
:101B100063F399502060B95C01F00F0101238B4001
:101B20000198034363F30F0ABB56002B16DB284BC7
:101B300003EB8101D1F8C421136843F4004369F336
:101B40009343B9F1000FA4D1102E25D01AD9202E1D
:101B50001ED0402E9FD16FF30A039CE7B9F1000F0E
:101B6000ACD11B4B342202FB05F29A5C02F00F024F
:101B700003EB8203D3F8C421136843F400436FF3EB
:101B80009343E1E7082E86D1032161F30A0382E73C
:101B9000012161F30A037EE7022161F30A037AE778
:101BA0006A330B4A52F82340206840F400406FF338
:101BB0009340102E95D08AD9202E8ED0402E7FF4BF
:101BC00018AF6FF30A0014E7000000307C08002013
:101BD000F80C002070B5064608460F4B342404FB71
:101BE00006342569954228BF1546E168A3692A464F
:101BF000194403F049F823695B1B23613BB9064B89
:101C0000342202FB06360023B361284670BDA36967
:101C10002B44A361F9E700BFF80C00202DE9F04147
:101C200000F00F051748342303FB05031B7913F05D
:101C3000040F21D0342303FB05035B6813F0080F66
:101C40001DD14FF0340808FB0504266A964228BFD0
:101C500016463246E06903F017F8E36963622663CB
:101C60000023A362E362636843F0080363602046D5
:101C7000FFF76EFC206B00E00120BDE8F081002042
:101C8000FBE700BFF80C002030B4057BC5B1002392
:101C900018460D4C342104E001200133DAB2AA4287
:101CA0000FD201FB0342526812F0080FF4D101FB7E
:101CB00003425268C2F30012002A18BF0120ECE769
:101CC000284630BC704700BFF80C002070B50024D7
:101CD0000A4E96F8FE5105F00105FFF7D5FF96F87C
:101CE000FE31C3F3800363F3000465F3410460F342
:101CF0008204012363F3C404204670BDF80C002065
:101D000008B5034801F00AF901F048FB08BD00BF1F
:101D10008000002038B50446FFF7F2FF404B1C60FE
:101D2000404800F11803011F3430402243F8042FCB
:101D300041F8042F8342F9D13B4D4FF40272002148
:101D4000284603F03BF86368C5F80032A368C5F87D
:101D500004322068C5F8A00100F50063C5F8A4317D
:101D600000F5106205F5D47305F5E27143F8042B14
:101D700020328B42FAD100F530622C4B05F5F07120
:101D800043F8042B20328B42FAD100F58052284BC5
:101D900005F5FE7543F8042B02F58052AB42F9D1EC
:101DA000836843F08103627B002A35D143F020032E
:101DB00083601D4DD5F8A021D36843F0804343F4E0
:101DC0008073D360D5F8A421136843F003036FF345
:101DD000D7531360D5F8A421536843F0020353602E
:101DE0001020FFF719FBFFF73DFBD5F8A0310022CB
:101DF0009A61D5F8A0314FF0FF325A610D4B627BEA
:101E0000012A08BF43F0100343F44023064AD2F8E6
:101E1000A0219361002038BD6FF34513C8E700BFD0
:101E2000F40C00207C080020F80C0020BC0E0020E0
:101E3000D80E00200E3C00C008B5034801F062F83F
:101E400001F0B4FA08BD00BF8000002000230D2877
:101E50000AD8DFE800F0070909090E091114171A5A
:101E60001C1F09224FF080430D4AD2F8A021536174
:101E700070474FF48053F7E74FF40063F4E74FF0F7
:101E80000043F1E74FF00043EEE70823ECE74FF49F
:101E90008063E9E74FF40053E6E74FF40023E3E7FC
:101EA000F80C00206A31024B53F8213098607047DB
:101EB000F80C0020034B03EB8101D1F8C43198608A
:101EC000704700BFF80C0020034BD3F8A4215369DE
:101ED00018435061704700BFF80C0020034BD3F843
:101EE000A421136918431061704700BFF80C00204B
:101EF0002DE9F04F85B08346C34BD3F8A0319C69E0
:101F00005E692640F3B2019313F0080F07D0BE4B71
:101F1000D3F80032092098470920FFF797FF9BF874
:101F20000D30012B47D0C6F3072414F0040F6AD1FB
:101F300014F0080F07D0B44BD3F8003206209847AE
:101F40000620FFF783FFC6F30763DDB213F0800FAF
:101F500007D0AD4BD3F80032082098470820FFF790
:101F600075FF15F0400F0DD0A74B93F8FE2142F0FE
:101F7000040283F8FE21D3F80032002098470020A5
:101F8000FFF764FF14F0100F41D114F0200F40F060
:101F9000B180C6F3074616F0040F40F0C78016F074
:101FA000080F40F07F81019B13F0040F40F0118275
:101FB00005B0BDE8F08F019B13F0100FB3D06FF3A5
:101FC0000414914BD3F8A0219461D3F8A031186A7E
:101FD000C0F34343022B08D0062B0DD044F010046D
:101FE000894BD3F8A0319C619DE7C0F30A1100F042
:101FF0000F00FFF7C5F9F1E7C0F30A1100F00F0079
:10200000FFF7BEF9EAE70A20FFF720FF90E77E48D6
:10201000D0F8A421536843F00103536000F5E27245
:1020200000F5F07052F8041B0B6843F000636FF387
:1020300055530B608242F5D1734DD5F8A031402243
:102040005A621020002360F31F4362F30F03D5F898
:10205000A0219362D5F8A0316C4AC3F80421D5F8C9
:10206000A0311032C3F80821D5F8A0311032C3F8DE
:102070000C21D5F8A0311032C3F81021D5F8A031C9
:102080001032C3F81421D5F8A0311032C3F818214A
:10209000FFF7C2F90020FFF7BFF9FFF7E3F9D5F822
:1020A000A4314FF00112DA610F20FFF70DFF0F206E
:1020B000FFF714FFD5F8A42113686FF30A13136018
:1020C0009BF80D30012B10D04F4B5A686FF3041260
:1020D0005A605A686FF3C3025A60D3F80032042082
:1020E00098470420FFF7B2FE4FE7D5F8A43100224D
:1020F0005A63E9E7444CD4F8A82113686FF30A0344
:10210000136094F8FE3143F0050384F8FE31D4F8EF
:10211000003202209847D4F8A021D368092161F346
:102120008D23D3600B20FFF791FE32E7364BD3F8B7
:10213000A4319A6919691FFA82F9B9F1000F00F008
:10214000AD804B460022029215461746DFF8B88054
:102150004FF0340A03960E4629E0012940F05081E1
:1021600014F0800F54D114F0010F16D00AFB07832E
:102170001A6B9B6A9A4240F08B800AFB07835A686D
:102180006FF3C3025A609BF80D30012B77D0D8F85B
:102190000432022145F0800098476A3758F827300A
:1021A0009C600135EDB22F4659FA05F375D013F056
:1021B000010FF6D007F16A0358F823209168D8F888
:1021C000A4315C6B0AFB07F318F8033003F00F032C
:1021D000DC40E401E4B234430C409BF80D100029CC
:1021E000BBD11369029314F0010FD6D0029B33F0D8
:1021F0006043BBD10AFB0783986ADA6A811AD86206
:102200005A6A0A445A62B1E7F80C002050001000E4
:1022100003F16A0258F8222092690AFB0781886A52
:10222000C96AB0EB010E19D00EF10300800892B21A
:1022300082423CBF4FEA820E104678B1783358F89C
:1022400023C000210AFB0782536A1B68CCF80030C8
:102250000131536A043353628142F5D10AFB07838B
:10226000DA6A7244DA625A6A72445A6214F0010FEE
:1022700093D09BF80D30002B7FF478AFB6E7D8F8F9
:10228000A4114B6B0122BA4023EA02034B637EE7A1
:102290000AFB0780FFF75CF97FE7039E0E20FFF73C
:1022A000D5FD7CE6594BD3F8A4319A69DE695B69A8
:1022B000029300230393C6F30F4616EA124600F07A
:1022C0008480334600242546504F4FF0340AB046F0
:1022D00024E00AFB05731A69D96A0A441A6148E0C6
:1022E0000AFB05731A6B9B6A9A4269D10AFB057354
:1022F000DA6A1A615A686FF304125A60D7F8043226
:1023000001212046984707EB8505D5F8C4319E602A
:102310000134E4B2254658FA04F356D013F0010F05
:10232000F6D007EB8503D3F8C4319E68029A1640B5
:102330009BF80D200AB91B6903935FFA86F919F01F
:10234000080F27D00AFB05731A796FF345121A712B
:102350009BF80D304BB90AFB0572039BC3F3417325
:10236000C3EB4373DB00183313619BF80D30012B73
:10237000AFD00AFB05735A686FF304125A60D7F89E
:10238000043200210846984707EB8503D3F8C4318F
:1023900008229A6019F0010FB5D09BF80D30002B80
:1023A0009ED10AFB0572D16A936A5B1A0398C0F347
:1023B00012001B1A1944D162516A0B4453628FE711
:1023C0000AFB0570FFF76EF89DE70D20FFF73EFD55
:1023D000E9E50E4BD3F8A0315C6814F0040F0AD085
:1023E0000A4B93F8FE216FF3820283F8FE21D3F8A3
:1023F000003201209847054BD3F8A0315C60D7E547
:1024000014F0010F7FF4B2AEC7E600BFF80C002055
:1024100010B50446002343618361C36102238371C5
:102420000373032383740121023000F0D7FB0346BA
:1024300008B9184610BD012104F1080000F0CEFBD8
:1024400003460028F5D0012104F10E0000F0C6FB80
:102450000346EEE70F4B1B78DBB2042B16D18369E2
:10246000B3B110B50C4683780B4A03F00F0182F824
:102470003C1123F07F0382F83D31204602F040FDFD
:10248000002281B2204601F0C7FA10BD0220704739
:1024900002207047010F0020B40B002038B50E4B0E
:1024A0001B78DBB2042B13D183699BB115460C4614
:1024B00083780A4A03F00F0182F83C1123F07F036E
:1024C00082F83D3100222946204601F0A5FA00E0BD
:1024D000022038BD0220FCE7010F0020B40B0020D1
:1024E000134B1B78DBB2042B1CD18369EBB110B505
:1024F0000C4683780F4A03F00F0182F83C1123F059
:102500007F0382F83D3100F0E5FA28B900F086FA41
:1025100000F006FA034618B9204600F0FBFA002343
:10252000184610BD0223184670470223FBE700BF80
:10253000010F0020B40B002010B51D4B1B78DBB23F
:10254000042B2FD1836983B3827802F00F031949DA
:1025500081F83C3122F07F0281F83D212C2202FBE0
:10256000031292F90420002A07DB124A2C2101FBF6
:1025700003239B893BB9002415E00A462C2101FB6B
:1025800003239B8BF6E700F0A5FA044600F046FA19
:102590000CB1002407E000F0C3F9044618B900F0BC
:1025A0003DFA00E00224204610BD0224FBE700BFF4
:1025B000010F0020B40B002008B5124B1B78DBB2D2
:1025C000042B00D008BD8369002BFBD0837803F077
:1025D0000F020D4981F83C2123F07F0381F83D3142
:1025E0002C2303FB02139B6813F0100FEAD10B4658
:1025F0002C2101FB0232137A13F0020FE2D0FFF715
:102600009BFFDFE7010F0020B40B002010B51A4B31
:102610001B78DBB2042B02D00024204610BD836956
:1026200033B3037A03F00F02144981F83C2123F0FD
:102630007F0381F83D312C2303FB02139B6813F0C9
:10264000200F17D02C2303FB021393F90430002B27
:1026500009DB0A4B2C2101FB02329489002CDCD1CE
:1026600000F0AEF9D9E72C2303FB0212948BF5E7B7
:102670000024D2E70024D0E7010F0020B40B002093
:1026800010B52B4B1B78DBB2042B48D18369002B90
:1026900048D0027A02F00F03264981F83C3122F03B
:1026A0007F0281F83D2118462C2202FB031292681A
:1026B00012F0200F39D02C2202FB031292F90420D1
:1026C000002A0FDB1B4A2C2101FB03239B894FF0BF
:1026D000FF3473B9174B2C2202FB00308389DBB126
:1026E000204610BD2C2202FB03139B8B4FF0FF34BE
:1026F00063B100F029FA04B20E4A92F83C012C238F
:1027000003FB002393F90430002BE3DA094A2C235E
:1027100003FB0020838BE2E700F052F9E0E74FF083
:10272000FF34DDE74FF0FF34DAE74FF0FF34D7E74F
:10273000010F0020B40B0020154B1B78DBB2042BDB
:1027400000D070478369002BFBD010B582B00446DF
:10275000837B104A03F00F0182F83C1123F07F03C2
:1027600082F83D310C4A6B4692E8030083E803008F
:1027700000220821184601F04FF90022022104F13D
:10278000160001F049F900F049F902B010BD00BF90
:10279000010F0020B40B0020BC55000870477047A3
:1027A00070470000484B93F83E3113F0020F04D0FD
:1027B000464B9A8803789A4200D0704710B5044679
:1027C000424B5B78203B032B5BD8DFE803F02A0207
:1027D000566B3E4B1B78A12B53D13B4A92F83E31AE
:1027E0006FF3410382F83E3192F83C21364B2C21A5
:1027F00001FB0232936813F0100FFBD1137A13F030
:10280000020FF7D0A06900F0B7F9207F00F082F93D
:10281000607F00F07FF9A07F00F07CF900F0FEF807
:102820002FE02A4B1B78212B2BD1274A92F83E31DF
:102830006FF3410382F83E3192F83C21224B2C2168
:1028400001FB02322249936813F0200F03D10B7869
:10285000002BF8D115E000F0A9F9A06100F074F99F
:10286000207700F071F9607700F06EF9A07700F042
:10287000A7F82046FFF792FF03E0144B1B78212BAB
:1028800000D010BD104A92F83E316FF3410382F838
:102890003E310E4A9378D27843EA02238382FFF7CF
:1028A0007EFFEEE7094B1B78212BEAD1064A92F80E
:1028B0003E316FF3410382F83E31044B5988C9B26F
:1028C000FFF76EFFDDE700BFB40B0020040F002010
:1028D000010F0020104B1B78EBB110B50F4B93F894
:1028E0003D4193F83C211443002283F83C2183F8B6
:1028F0003D2193F83E3113F0020F09D1074B04F04C
:102900000F0283F83C2124F07F0483F83D4110BD81
:10291000FEF796F9F2E77047010F0020B40B002094
:102920002DE9F041244B1B689B6B984706466427B2
:10293000214C2C25DFF8848001E01F46064694F8E0
:102940003C3105FB034292F90420002A1DDB05FB04
:102950000342926812F0200F26D198F8002002F06E
:10296000FF011AB3052923D005FB03431B7A13F09B
:10297000040F1FD123689B6B98478642DED07B1ED5
:10298000DBB2002FD9D104200CE005FB0342926892
:1029900012F0100FE1D105FB0342127A12F0020F80
:1029A000DBD00020BDE8F0810020FBE70220F9E742
:1029B0000320F7E70120F5E7B40B0020010F00200A
:1029C00038B5154A92F83C512C2303FB05231B7A9A
:1029D00013F0020F1ED02C2404FB05241368DB6ABD
:1029E000A269616920799847E06000232361A368A8
:1029F00013F0080F0ED168B9074A238943F0080382
:102A0000238123896FF34513238113689B6AA1698E
:102A10002079984738BD00BFB40B0020F8B52A4A8A
:102A200092F83C512C2303FB05239B6813F0100FF5
:102A30002ED12C2303FB05231B7A13F0020F27D082
:102A40002C2404FB0524238943F010032381236AEB
:102A5000E362E369A3620023E3611C4E4FF4006765
:102A6000C6F88C70BFF34F8FBFF36F8F13681B6B6B
:102A7000A26AE16A20799847E26A0244E262A36AA4
:102A80001B1AA362F760124B1B78DBB2012B00D03C
:102A9000F8BD207910F00F0FFAD02246936813F09A
:102AA000100FFBD1084A2C2303FB05252B8943F08B
:102AB00010032B8113681B6B0022E96A9847044BB3
:102AC00000221A70E4E700BFB40B002000E100E030
:102AD000B40800200E4991F83C312C2202FB03126D
:102AE00092F90420002A08DB094A2C2101FB032368
:102AF000D868003018BF012070470A462C2101FB1E
:102B00000323D8695B6A98422CBF002001207047DC
:102B1000B40B002010B40B4B93F83C112C2202FB99
:102B20000132D369526A9342FDD2064A2C2404FB37
:102B30000122116AC854D3690133D3615DF8044B93
:102B4000704700BFB40B00200A4991F83C312C2299
:102B500002FB0312D268002AFDD006492C2000FB9C
:102B6000031319695869405C01311961013ADA604F
:102B7000704700BFB40B002010B40B4A92F83C1110
:102B80002C2303FB0123DA695B6A033B9A42FDD2E3
:102B9000054B2C2404FB0133196A8850DA6904328E
:102BA000DA615DF8044B7047B40B00200A4991F8D4
:102BB0003C312C2202FB0312D268032AFDD90649BC
:102BC0002C2000FB0313196958694058043119611E
:102BD000043ADA60704700BFB40B0020002930D0FF
:102BE0002DE9F04104464F1EFFB207EB47070630C0
:102BF00000EB4707154E4FF02C0802E00634BC42AC
:102C00001DD0207800F00F053368DB6962882179D8
:102C10009847C0B9237808FB05621371138961884E
:102C200061F38C13138143F003031372207810F0C7
:102C3000800FE3D133689B6A91699847DEE70120F2
:102C400002E0012070470020BDE8F081B40B0020B5
:102C500010B5044601F0B6FB074B1868074BA3FB01
:102C60000030800C04FB00F020B1002300BF0133D2
:102C70009842FBD110BD00BFC0FF002083DE1B4384
:102C8000024A936818439060704700BF7440005038
:102C9000024A936823EA0000906070477440005035
:102CA000024A136918431061704700BF7440005016
:102CB000014B5868704700BF74400050014BD8600A
:102CC000704700BF74400050024B186900F47060F8
:102CD000704700BF00400050014B1861704700BFB3
:102CE000004000508000014B185870472C400050A5
:102CF0008000014B195070472C400050800000F1BB
:102D0000A04000F58040D0F8A020012303FA01F193
:102D10001143C0F8A0107047800000F1A04000F5FA
:102D20008040D0F8A030012202FA01F123EA010329
:102D3000C0F8A03070470000C90241F4080141EA20
:102D40000011024BC3F88C10704700BF00400050C8
:102D5000034AD2F88C3023F00103C2F88C3070475C
:102D600000400050034AD2F88C3043F00103C2F80F
:102D70008C30704700400050034BD3F88C0080F03B
:102D8000010000F00100704700400050024BD3F8F2
:102D90009000C0F3803070470040005008B5FFF746
:102DA000EBFF28B1044BD3F89000C0F3090008BD35
:102DB0006FF00040FBE700BF00400050024BD3F82B
:102DC0009000C0F3C03070470040005010B5FFF7CE
:102DD000D3FF0446FFF7F2FF50B984F00100C0B200
:102DE000044AD2F88C3043F00203C2F88C3010BD94
:102DF0000220F5E700400050000400F4702040F08D
:102E00000100064BC3F8CC10C3F8C8001A46D2F82C
:102E1000C43013F4005FFAD1704700BF0040005087
:102E2000000400F47020064BC3F8C8001A46D2F81C
:102E3000C43013F4005FFAD1014BD3F8CC007047D3
:102E400000400050024A936823EA000090607047F7
:102E500060410050024A936818439060704700BF79
:102E600060410050014B5868704700BF60410050FE
:102E7000014B1861704700BF60410050014BD860A2
:102E8000704700BF60410050024A536918435061C7
:102E9000704700BF3C410050014B5869704700BF6C
:102EA0003C410050024A136818431060704700BF4D
:102EB0003C410050024A136823EA0000106070474A
:102EC0003C410050024A936818439060704700BF2D
:102ED0003C410050024A936823EA0000906070472A
:102EE0003C410050024A536918435061704700BF8B
:102EF00074400050024A536923EA00005061704751
:102F000074400050030F03EB430320F07040024A6B
:102F100042F82300704700BF10440050030F03EB3A
:102F2000430320F07040024A42F82300704700BF7C
:102F300014440050030F03EB430320F07040044A95
:102F400052F82330184214BF01200020704700BF00
:102F50000C44005008B5054BDB6813F0010F02D19B
:102F600001F02CFA08BD0248FCE700BF10470050F2
:102F700000366E0108B5FFF7EDFF0F4B1B6813F02D
:102F8000010F11D10C4B9A6899689B68C1F3062117
:102F900001FB0000C2F30362C3F30643013302FBEB
:102FA0000333B0FBF3F008BD034B9B6803F07F03D2
:102FB0000133B0FBF3F0F6E71047005008B501F01D
:102FC000FDF9094B1B6913F0010F0CD1064B5A692F
:102FD0005B69C2F3062202FB0000C3F30363013303
:102FE0005B00B0FBF3F008BD10470050054B1A69B9
:102FF0001B6A02F0010204490868904003F00103D3
:10300000D840704700460050C0FF002008B5094B6B
:103010009B6913F4803F09D1FFF7D0FF054B9B69F3
:1030200003F007030133B0FBF3F008BDFFF7A2FF85
:10303000F4E700BF0046005008B5FFF79BFF044BC4
:10304000DB6903F03F030133B0FBF3F008BD00BFC1
:103050000046005008B50D4B5B6A03F44033B3F5EE
:10306000003F0DD07BB1B3F5803F14BF00204FF47B
:103070000040064B5B6ADBB20133B0FBF3F008BDE6
:10308000FFF778FFF5E70248F3E700BF004600507E
:1030900000366E0108B5134B9B6A03F00303032B44
:1030A00004D06BB1022B13D0002010E0FFF762FFB9
:1030B0000C4B9B6AC3F308430133B0FBF3F006E00B
:1030C000084B1B6903F00103074A1068984008BDCC
:1030D000FFF774FF034B9B6AC3F308430133B0FB54
:1030E000F3F0F4E700460050C0FF0020034B5B699B
:1030F00003F00103024A1068D840704700460050B0
:10310000C0FF0020034AD36823F480331843D06003
:10311000704700BF00460050034A936923F4803390
:1031200018439061704700BF00460050034A536A3D
:1031300023F4403318435062704700BF00460050EC
:10314000034A936A23F0030318439062704700BF59
:103150000046005038B1084AD36843F4807343F006
:103160000103D3607047044AD36823F4807323F0CB
:103170000103D360704700BF10470050064AD2F8E1
:10318000C43013F0080FFAD1044AD36823F0400387
:103190001843D060704700BF00400050004300500B
:1031A000064AD2F8C43013F0080FFAD1044AD368A3
:1031B00023F080031843D060704700BF00400050E8
:1031C00000430050034AD36823F0FF030138034350
:1031D000D360704700460050034A136A23F001038E
:1031E000013803431362704700460050034A1369D5
:1031F00023F0010301380343136170470046005078
:10320000034A536923F001030138034353617047B4
:1032100000460050034A936923F007030138034333
:103220009361704700460050034AD36923F03F037F
:1032300001380343D361704700460050034A536A84
:1032400023F0FF03013803435362704700460050E8
:10325000054A936A013823F0FF7323F4803343EA6D
:1032600000439362704700BF00460050014B586016
:10327000704700BF00460050014B9860704700BF88
:1032800000460050034B1B68184214BF0120002069
:10329000704700BF00460050064B5B69DBB207EE8B
:1032A000903AF8EE677A9FED047A67EE877A17EE28
:1032B000900A704700420050ED0DBE3B074B5B6922
:1032C000C3F3072307EE903AF8EE677A9FED047A8E
:1032D00067EE877A17EE900A704700BF00420050F1
:1032E000EC51B83C034A536923F4803323F00203C2
:1032F0005361704710470050034A536943F48033C9
:1033000043F002035361704710470050104B5A6955
:1033100042F001025A615A6942F010025A610139C1
:103320000138000640EA012159615A6942F0400221
:103330005A615A6922F010025A615A6942F4802295
:103340005A611A46136913F0040FFBD0704700BF8F
:1033500010470050014B024A5A6170471047005015
:103360000300010010B50C4A536843F48013536006
:10337000012803D06420FFF76BFC10BD144653688E
:1033800023F4801353606420FFF762FC636843F406
:1033900000236360EEE700BF10470050024B4FF47C
:1033A00040325A60704700BF00420050024B4FF459
:1033B00040329A60704700BF00420050024B1869CB
:1033C000C0F38000704700BF104700500D4B1B68D2
:1033D00013F0010F07D10B4B01225A601A461368F4
:1033E00013F0010FFBD0084B1B6813F4007F08D0CB
:1033F000054B4FF400729A601A46136813F4007F6D
:10340000FBD170470042005000440050044B0122A1
:103410009A6003F500734FF400725A60704700BF62
:1034200000420050064B1B6813F0010F06D0054BFD
:10343000186880F40070C0F3402070470020704787
:103440000042005000440050054AD2F8C43013F046
:10345000200FFAD1034A536923F0010353617047E7
:103460000040005000430050054AD2F8C43013F029
:10347000200FFAD1034A536943F0010353617047A7
:103480000040005000430050044AD2F8C43013F00A
:10349000020FFAD1024B5860704700BF0040005045
:1034A00000430050044AD2F8C43013F0040FFAD19C
:1034B000024B9860704700BF00400050004300502E
:1034C000054AD2F8C43013F0080FFAD1034BDA687A
:1034D0001043D860704700BF0040005000430050C8
:1034E000054AD2F8C43013F0080FFAD1034AD36862
:1034F00023EA0000D06070470040005000430050B5
:10350000054AD2F8C43013F0080FFAD1034AD36841
:1035100043F01003D3607047004000500043005058
:1035200000B1704708B5FFF7EBFF08BD094AD2F8B4
:10353000C43013F0080FFAD128B1074AD36823F436
:103540008073D3607047044AD36843F48073D360B8
:10355000704700BF004000500043005010B40A4ABA
:10356000D2F8C43013F0080FFAD1084CE368800099
:103570004FF47022824023EA020381401943E16044
:103580005DF8044B704700BF0040005000430050FE
:1035900010B4094AD2F8C43013F0080FFAD1074C1E
:1035A000E3684FF48052824023EA020381401943CA
:1035B000E1605DF8044B704700400050004300504C
:1035C000094AD2F8C43013F0080FFAD128B1074ADB
:1035D000D36823F48063D3607047044AD36843F40C
:1035E0008063D360704700BF00400050004300502C
:1035F000064AD2F8C43013F0080FFAD1044AD3684F
:1036000023F480631843D060704700BF004000502F
:1036100000430050034B186880F00800C0F3C0005E
:10362000704700BF00430050134AD2F8C43013F073
:10363000800FFAD1114AD36923F03003D361A2F588
:103640004072D2F8C43013F0080FFAD10B4AD36895
:1036500043F00803D360A2F54072D2F8C43013F0EF
:10366000040FFAD1054B08229A60034AD2F8C430FD
:10367000002BFBD1704700BF0040005000430050BA
:10368000054AD2F8C43013F0800FFAD1034AD36947
:1036900043F03003D36170470040005000430050B6
:1036A000054AD2F8C43013F0800FFAD1034AD36927
:1036B00043F03103D3617047004000500043005095
:1036C000064AD2F8C43013F0800FFAD1044AD36905
:1036D00023F0310343F02003D361704700400050D2
:1036E00000430050024B986900F00100704700BF92
:1036F0000043005070B50D4D6B6823F480336B6050
:103700000B4E746800F05AFE0A4BA3FB0030030D09
:10371000581E24F4702323F0300343EA00437360FF
:103720006B6823F400336B6070BD00BF104700501E
:10373000004700506BCA5F6B044B186800F4607060
:10374000B0F5607F14BF0020012070471047005083
:10375000024A536843F030035360704700470050FB
:10376000024A536843F0010353607047004700501A
:10377000024A536823F0010353607047004700502A
:10378000024B186800F00100704700BF004700506E
:10379000034A536823F4803323F0020353607047D5
:1037A00010470050034A536843F4803343F0020348
:1037B0005360704710470050024A536843F4803307
:1037C000536070471047005008B5064A93680138A7
:1037D00023F4FE0343EA004393603220FFF738FAF4
:1037E00008BD00BF104700502DE9F04180460C464F
:1037F00017461E46069DFFF7ADFC012C10D0364A39
:10380000936823F07F03681E18439060536843F069
:1038100001035360136813F0010FFBD0BDE8F08182
:10382000B8F1000F4AD04FF0C06406FB04F4B4FBBB
:10383000F7F429494B6843F001034B604B6843F0B0
:1038400010034B608A68013F244B134043EA07632F
:10385000013E43EA0623224AA2FB0402920E013AE9
:1038600043EA02438B604B6843F040034B604B6874
:1038700023F010034B604B6843F480234B600A46EF
:10388000136813F0040FFBD0134A536823F00103AD
:103890005360136813F0010FFBD11248A0FB0430F2
:1038A000C00E854212D360080F4CA4FB0030C00E3E
:1038B00085420ED32846FFF787FFAFE700F07EFD75
:1038C0000A4CA4FB0034A40CA405AEE7FFF77CFF70
:1038D000E9E7FFF779FFEDE710470050FF8080F040
:1038E000ABAAAAAA89888888B7600BB683DE1B4377
:1038F00030B583B004460020FFF704FCFFF766FDF7
:10390000E37923BB607AFFF74BFC204AD2F8C4303E
:10391000002BFBD1207AFFF725FD207CFFF752FC1E
:10392000607CFFF763FCA07CFFF756FCE07CFFF7B0
:1039300067FCA37993B9E378BBB9FFF733FFE3687A
:10394000B3F5803F1CD000F03DFD03B030BDFFF764
:103950006BFEFFF75FFE0028FBD0D3E7FFF7CAFE40
:10396000FFF7EAFE0028FBD0E5E7FFF711FF237819
:103970006278E178A088A5780095FFF735FFDEE74B
:103980004FF48030FFF7BEFBDDE700BF0040005082
:10399000024B1868C0F38000704700BF104700500A
:1039A00010F0010F11D10023013320FA03F212F0BD
:1039B000010F03D1202BF7D101207047202B06D017
:1039C000044A42F82310002070470023F8E7012042
:1039D000704700BF0C0F002010B50D4B5A6812F055
:1039E000010F09D1012422FA04F313F0010F04D1CD
:1039F0000134202CF7D10AE00024064B53F8243080
:103A000003B19847012303FA04F4014BDC6010BDB5
:103A1000744000500C0F00202DE9F84F81460E46EF
:103A20002A4B93F83CA190464AB11788CE1BB6B2F8
:103A30004FF0000B254B2C2505FB0A351AE000271B
:103A4000F6E7FFF747F8F8B1EB696C6AE41AB4429D
:103A500028BF3446A4B2286A224609EB070118445D
:103A600000F0CEF9EB692344EB612744BFB2341B6D
:103A7000B346A6B2BEB1AB6813F0100FE1D0AB688D
:103A800013F0100FFBD1DCE7FEF7C8FFB8F1000F11
:103A900005D1FEF745FF03460028EBD00EE0A8F85D
:103AA000007005230AE0094B2C2202FB0A3ABAF8FF
:103AB0000830C3F386135B4503D000231846BDE8E6
:103AC000F88F034B01221A700023F7E7B40B002094
:103AD000B408002072B110B44B1E013810441144D8
:103AE000013913F8012F00F801298B42F9D15DF853
:103AF000044B7047704700002DE9F8438046894623
:103B0000224B93F83C51174642B116888C1B1FFA82
:103B100084F91E4B2C2202FB05351BE00026F8E73A
:103B2000FEF7D8FF10B3E8696B6A1B1A4B4528BF34
:103B30004B469CB22B6A224608EB06011844FFF75D
:103B4000C9FFEB692344EB612644B6B2A9EB040438
:103B50001FFA84F9B9F1000F14D0AB6813F0100FFD
:103B6000DED0AB6813F0100FFBD1D9E7FEF756FF9C
:103B70002FB9FEF7D5FE03460028EBD003E03E80C8
:103B8000052300E000231846BDE8F883B40B0020AD
:103B90002DE9F84381460E46224B93F83C5190465E
:103BA0003AB11788CC1BA6B21E4B2C2202FB05355E
:103BB0001BE00027F8E7FEF78DFF00B3EC68B44286
:103BC00028BF3446A4B269692B692246194409EB1F
:103BD000070000F015F9EB681B1BEB602B69234411
:103BE0002B612744BFB2341BA6B2BEB1AB6813F041
:103BF000080FE0D0AB6813F0080FFBD1DBE7FEF74E
:103C0000DFFEB8F1000F05D1FEF78AFE034600285B
:103C1000EBD004E0A8F80070052300E0002318466C
:103C2000BDE8F883B40B00202DE9F84381460E4629
:103C3000224B93F83C5190463AB11788CC1BA6B260
:103C40001E4B2C2202FB05351BE00027F8E7FEF790
:103C500041FF00B3EC68B44228BF3446A4B269699E
:103C60002B692246194409EB0700FFF733FFEB6885
:103C70001B1BEB602B6923442B612744BFB2341B11
:103C8000A6B2BEB1AB6813F0100FE0D0AB6813F072
:103C9000100FFBD1DBE7FEF793FEB8F1000F05D163
:103CA000FEF73EFE03460028EBD004E0A8F80070C3
:103CB000052300E000231846BDE8F883B40B00207C
:103CC000F8B507460E460F4CCEB1A36813F0100F9F
:103CD00003D0A36813F0100FFBD1656AB54294BFFF
:103CE000ADB235462A463946206A00F089F8E369C4
:103CF0002B44E361751BAEB2FEF790FEE4E70020B3
:103D0000F8BD00BFB40B002008B5FFF7D9FF08BD10
:103D10002DE9F04107460E46104CDEB1A36813F0C2
:103D2000200F03D1A36813F0200FFBD0E568B54244
:103D300028BF35461FFA85F842466169384600F0CB
:103D40005FF8E368A3EB0803E360751BAEB2FEF710
:103D500037FEE2E70020BDE8F08100BFB40B002091
:103D600008B5FFF7D5FF08BD2DE9F8438146234B81
:103D700093F83C510F4651B10E88841B1FFA84F909
:103D80001E4B2C2202FB05354FF000081AE00026DE
:103D9000F6E7FEF79FFE08B3E8696B6A1B1A4B450E
:103DA00028BF4B469CB22B6A22464146184401F07C
:103DB00005F8EB692344EB612644B6B2A9EB040491
:103DC0001FFA84F9B9F1000F14D0AB6813F0100F8B
:103DD000DFD0AB6813F0100FFBD1DAE7FEF71EFE61
:103DE0002FB9FEF79DFD03460028EBD003E03E808F
:103DF000052300E000231846BDE8F883B40B00203B
:103E0000130911D051F804CB40F804CB51F804CB7E
:103E100040F804CB51F804CB40F804CB51F804CB64
:103E200040F804CB013BEDD112F00F0305D011F89F
:103E300001CB00F801CB013BF9D1704710B401F080
:103E4000FC031844036901F00301C900F8248C4005
:103E500023EA04030361036902FA01F119430161D2
:103E60005DF8044B704710B4436F490003248C4045
:103E700023EA04034367436F8A401A4342675DF8AD
:103E8000044B7047F0B401F0FC0303441D6901F0DA
:103E90000304E400F826A64025EA06051D61456FE7
:103EA0004F000326BE4025EA06054567154DA8428A
:103EB0001FD005F58075A8421BD055688D40456020
:103EC000CD0800EB8500056C01F00701890007268D
:103ED0008E4025EA06050564066C157A05FA01F19F
:103EE0003143016419691278A2400A431A61F0BC97
:103EF0007047056E012606FA01F125EA0101016607
:103F0000F0E700BF008E024810B4CB0800EB83003E
:103F1000036C01F00701890007248C4023EA0403A5
:103F20000364036C02FA01F1194301645DF8044B68
:103F30007047000010B504461020FFF797F90E4BAC
:103F40009C4209D00D4B9C420AD00D4B9C420BD099
:103F50000C4B9C420CD010BD0420FEF7DFFFFAE7AB
:103F60000820FEF7DBFFF6E71020FEF7D7FFF2E7A9
:103F70000548FEF7D3FFEEE700C000400000014017
:103F800000400140004000480100001008B50E4B01
:103F9000984209D00D4B98420AD00D4B98420BD055
:103FA0000C4B98420CD008BD0420FEF7ABFFFAE79B
:103FB0000820FEF7A7FFF6E71020FEF7A3FFF2E7C1
:103FC0000548FEF79FFFEEE700C0004000000140FB
:103FD00000400140004000480100001038B5044690
:103FE0000D46FFF7A7FFE36843F48073E3602168A1
:103FF00021F4404141EA8531216038BD036823F056
:10400000300343EA011101607047036823EA11435A
:1040100089B21943016070470B6843614B79C3F360
:1040200040131B0543600B7903F00F0343624B7988
:1040300003F00F0303624B79C3F3001383610B7921
:104040001B09C36270470B6843614B7903F001039E
:104050001B0543600B7903F00F0343620B791B09C7
:10406000C3627047436823F0030319434160436907
:10407000012A0CBF43F4806323F4806343617047DB
:10408000436823F00C0343EA81014160436923F450
:10409000407343EA022242617047436823F440536D
:1040A00043EA01314160704730B44469456825F402
:1040B000402545EA81414160012A0CBF44F08074EB
:1040C00024F0807423B924F40004446130BC7047A8
:1040D00044F40004F9E7436823F4404343EA8131A0
:1040E00041607047436823F4407343EA0121416013
:1040F0007047436823F0300343EA01114160704781
:10410000436823F0C00343EA81114160704743686C
:1041100023F4406343EA812141607047436843F4DC
:10412000803343607047436843F40033436043691E
:104130004AB143F4001301290CBF43F4800323F474
:1041400080034361704723F40013F4E710B403685D
:1041500023F440234C7843EA844323F440135478F7
:1041600043EA045323F400038C7843EAC45323F056
:104170008073947843EA046323F0C053CC7843EA15
:10418000C46323F0C043D47843EA447323F0F003BC
:10419000097843EA011323F47063127843EA022397
:1041A00003605DF8044B7047F0B44C1EE4B2D0F8E5
:1041B00000C06500EDB205F11003DFB2032606FA78
:1041C00007F32CEA030C5378BB4043EA0C03153188
:1041D000CFB20121B94023EA01039178B9401943D4
:1041E0001935EDB206FA05F321EA0301D378AB40A5
:1041F0000B43A100C9B20F248C4023EA04031278B8
:1042000002FA01F10B430360F0BC704710B403687D
:1042100001398900C9B20F248C4023EA040302FA51
:1042200001F1194301605DF8044B704721B1436906
:1042300043F0020343617047436923F00203436183
:10424000704721B1436943F00103436170474369FB
:1042500023F00103436170471C3100EB8101486882
:10426000704730B4436913F0100F27D101290BBFF9
:1042700004250225022300231C4603F11C0100EB48
:104280008101496811F4801F08BF01330CD1D9B2F4
:104290008D4211D91C4603F11C0100EB81014968D4
:1042A000013311F4801FF2D01C3400EB840043680A
:1042B0001360002030BC70470120FBE70425002379
:1042C000DAE7006DC0F30152914218BF4FF0FF30A2
:1042D000704710B4446924F4C04409B144F4005454
:1042E0000AB144F48044446103625DF8044B7047B2
:1042F000836A23F4706343EA012383624162704757
:1043000010B4D0F8A830092911D8DFE801F014144E
:10431000050510101010080C0C2402210DE04FF4BC
:104320004074082109E04FF440640A2105E04FF48D
:1043300040540C2101E00324002123EA04038A40B5
:104340001A43C0F8A8205DF8044B7047836923F036
:10435000010319438161704782B000230193019BDF
:10436000984206D900BF019B01330193019B834210
:10437000F8D302B07047000072B60D4B0D4A9A6038
:10438000BFF34F8F62B6D3F8882042F47002C3F8AF
:1043900088205A6922F008025A61074941F2140242
:1043A0008B5823F00F0343F003038B50704700BF7B
:1043B00000ED00E0000000080010005800487047C1
:1043C000001BB70008B51E4BDB6813F4803F27D0F5
:1043D0001C4BDB6813F0010F0DD01B48194B1B68F9
:1043E00013F0040F0AD1174B9B6803F07F030133CE
:1043F000B0FBF3F015E0FFF7E1FFEFE7114B996831
:104400009A689B68C1F30361C3F30643013301FB60
:104410000333B0FBF3F0C2F3062303FB000000E01C
:104420000948074AD368DBB20133B0FBF3F01369E4
:1044300003F001030133B0FBF3F0044B186008BD37
:10444000004600501047005000366E01C0FF0020AB
:1044500010B55C4B1B6813F0010F08D1594A536823
:1044600043F001035360136813F0010FFBD0564B68
:104470001B6813F4007F78D1544C636843F4002325
:10448000636040F6C410FFF767FF636823F480336E
:1044900023F0020363604E4B5B6813F0300F6ED164
:1044A0004A4B5A6842F001025A605A6842F01002C0
:1044B0005A60484A9A605A6842F040025A605A6804
:1044C00022F010025A605A6842F480225A601A465A
:1044D000136813F0040FFBD03C4A536823F0010328
:1044E0005360136813F0010FFBD13B4BDA6842F4C1
:1044F0008032DA6000225A611A611A625A62DA6105
:1045000003229A6103F588735A6822F040025A60C8
:10451000324A9A6040F6B830FFF71EFF2B4A136804
:1045200013F0040FFBD0294B2D4A9A6041F29410EE
:10453000FFF712FF254A136813F0040FFBD0234B3B
:10454000284A9A6041F27070FFF706FF1F4A13680D
:1045500013F0040FFBD0244B0522DA6003F59463BB
:1045600000225A60FFF72EFF10BD174A936843F4EC
:104570000073936041F64C50FFF7EEFE7CE7103C71
:10458000636823F4702323F030036360FFF716FFA2
:104590006268164BA3FB00131B0D013B42EA034369
:1045A00063600A4BDA6822F00102DA605A6822F48A
:1045B00000325A601A46136803F46073B3F5607FE3
:1045C000F9D16DE700420050004400501047005000
:1045D00000470050004F130100460050004F0701F4
:1045E000004F0401004F0301604100506BCA5F6B34
:1045F00010B54FF00053044C0FCB84E80F00FFF7C9
:10460000BBFEFBF7ADFE10BDC4FF002008B503469E
:104610000C4A12685AB10B4A1068033323F00303A3
:104620000344094A934206D2064A136008BD054A6C
:1046300006491160EFE700F049F80C2303604FF0E2
:10464000FF30F3E7B8080020C0FF0020B80F0020BB
:1046500070470000024B0A460146186800F002B895
:104660003800002010B502FB01F100F069F80446A3
:10467000D8B150F8042C22F00302043A242A1DD8A1
:10468000132A14D900231B2AC0E900331BD9242A7A
:10469000C0E902330ABFC0E9043300F1100200F19F
:1046A00018020023C2E900339360204610BD024681
:1046B0000023C2E900339360204610BD002100F0C2
:1046C0007DFB204610BD00F10802F1E7014B1868A0
:1046D000704700BF3800002070B50D4E0D4D761BA1
:1046E000B61006D00024013455F8043B9847A64282
:1046F000F9D1094E094D761BFFF7AAFFB61006D077
:104700000024013455F8043B9847A642F9D170BD06
:104710007808002078080020780800207808002019
:10472000024B0146186800F00BB800BF38000020AB
:10473000024B0146186800F0A1BC00BF3800002001
:104740002DE9F04F01F10B05162D83B0064623D855
:10475000102900F2B98000F07BFB102518230220FD
:10476000C54F3B44A3F108025C68944200F06681A7
:10477000636823F003032344D4E902515A68E960D3
:1047800042F001028D6030465A6000F067FB083449
:10479000204603B0BDE8F08F35F0070500F19480A6
:1047A000A94200F2918000F053FBB5F5FC7FC0F008
:1047B00083816B0A00F08F80042B00F24681AB09E5
:1047C00003F1390003F1380CC300AB4F3B44A3F1B4
:1047D00008015C68A14206D10CE0002A80F21D812C
:1047E000E468A14206D0636823F003035A1B0F2A32
:1047F000F3DD60463C69DFF894C2644571D06368BC
:1048000023F003035A1B0F2A00F34481002AC7E94F
:1048100004CC80F22681B3F5007F80F06981DB084B
:10482000591C7A6857F83180C4F808804FF0010E9F
:104830009B100EFA03F307EBC10E1343AEF108020F
:10484000E2607B6047F83140C8F80C4082100124D8
:1048500094409C424BD81C4206D120F003006400D7
:104860001C4200F10400FAD007EBC009CE46804696
:10487000DEF80C309E4507D122E1002A80F2298122
:10488000DB689E4500F01C81596821F003014A1B3A
:104890000F2AF2DDD3E9028E5C1945F001055D6057
:1048A00042F00105C8F80CE03046CEF80880C7E9B0
:1048B0000444C4E902CC65605A50019300F0CEFA7A
:1048C000019B03F1080463E700240C2320463360B6
:1048D00003B0BDE8F08F4FF4007340204FF03F0C61
:1048E00073E77B688210012494409C42B3D9BC6872
:1048F000636823F00309A94503D3A9EB05030F2B34
:104900007BDC5E4BDFF888A11A68DAF800300133EF
:1049100005EB020800F0488108F5805808F10F08FF
:1049200028F47F6828F00F084146304600F0C2FAAC
:10493000B0F1FF3F834600F0048104EB09005845C5
:1049400000F2FD804E4A13684344136000F04D812D
:10495000DAF8001001311BBFABEB00001B18CAF8DE
:1049600000B013601BF0070300F03481C3F10801AD
:10497000C3F580538B440833D844C8F30B08A3EB2A
:10498000080841463046019200F094FA431C019A0F
:1049900000F04681A0EB0B01414441F00101136896
:1049A000C7F808B04344BC42CBF80410136015D0DC
:1049B000B9F10F0F40F230816068A9F10C0121F0CC
:1049C000070100F0010004EB010C08434FF0050E55
:1049D0000F296060CCE901EE00F23A81294A2A48A9
:1049E0001168BC688B42016888BF136062688B42A3
:1049F00022F0030288BF0360A7E0621943F00103BD
:104A000045F0010565603046BA60536000F026FA53
:104A10000834204603B0BDE8F08F2344E1685A68AB
:104A2000A56842F00102E96030468D605A6000F0EE
:104A300015FA0834204603B0BDE8F08FDC68A342C5
:104A400008BF02303FF4D6AE92E6142B71D9542B36
:104A500000F2AD802B0B03F16F0003F16E0CC3006D
:104A6000B3E6234430465A6842F001025A600834E3
:104A700000F0F4F98CE600BF68040020F008002084
:104A8000C0080020E8080020EC0800207004002086
:104A900070080020611945F0010E42F00105C4F8CC
:104AA00004E03046C7E90411C1E902CC4D60E25090
:104AB00000F0D4F908346BE6E80805F108034FE686
:104AC00008F1010818F0030F0EF1080E7FF4D0AEC4
:104AD00052E019441C464A68DB6854F8085F42F00B
:104AE00001024A603046EB609D6000F0B7F94FE686
:104AF0005A0A042A35D9142A6FD802F15C01C90078
:104B00005B3207EB010E7958AEF1080E8E4558D096
:104B10004A6822F003029A4202D989688E45F7D189
:104B2000D1F80CE07B68C4E9021ECEF80840CC60E6
:104B30008CE603F15C0003F15B0CC30045E6BC426C
:104B400072D0BC68626822F003029542A2EB0503B2
:104B500002D80F2B3FF751AF304600F07FF9002409
:104B600016E69A0902F13901C9003832C9E7D9F8C5
:104B70000090994540F0838010F0030FA9F10803DD
:104B800000F1FF30F3D17B6823EA04037B6064000B
:104B90009C423FF6ACAE1CB9A9E6640008F10408DB
:104BA0001C42FAD040465FE608F11008BCE6B3F5B7
:104BB000AA7F26D8EB0B03F1780003F1770CC30032
:104BC00003E67B6892104FF0010808FA02F21343E3
:104BD0007B60A8E74FF48053CEE6542A29D81A0BFD
:104BE00002F16F01C9006E328BE7C0F30B0100299F
:104BF0007FF4AEAE09EB0802B96842F001024A60E8
:104C0000ECE640F2545293421CD8AB0C03F17D0009
:104C100003F17C0CC300D8E50123CBF804309BE7FB
:104C200001214FF00008BAE6164A136843441360A6
:104C30008EE6B2F5AA7F14D8DA0B02F17801C9002A
:104C400077325EE74FF47E737F204FF07E0CBCE539
:104C500004F108013046019200F010FA019A13683D
:104C6000BCE640F254518A4205D89A0C02F17D010B
:104C7000C9007C3245E74FF47E717E2241E77B68B4
:104C800085E700BFC0080020844641EA000313F016
:104C900003036DD1403A41D351F8043B40F8043B43
:104CA00051F8043B40F8043B51F8043B40F8043B06
:104CB00051F8043B40F8043B51F8043B40F8043BF6
:104CC00051F8043B40F8043B51F8043B40F8043BE6
:104CD00051F8043B40F8043B51F8043B40F8043BD6
:104CE00051F8043B40F8043B51F8043B40F8043BC6
:104CF00051F8043B40F8043B51F8043B40F8043BB6
:104D000051F8043B40F8043B51F8043B40F8043BA5
:104D100051F8043B40F8043B403ABDD2303211D345
:104D200051F8043B40F8043B51F8043B40F8043B85
:104D300051F8043B40F8043B51F8043B40F8043B75
:104D4000103AEDD20C3205D351F8043B40F8043B45
:104D5000043AF9D2043208D0D2071CBF11F8013B43
:104D600000F8013B01D30B8803806046704700BF09
:104D7000082A13D38B078DD010F003038AD0C3F118
:104D80000403D21ADB071CBF11F8013B00F8013BFA
:104D900080D331F8023B20F8023B7BE7043AD9D3B9
:104DA000013A11F8013B00F8013BF9D20B7803708E
:104DB0004B7843708B78837060467047F0B48607F9
:104DC00043D0541E002A3ED0CAB2034602E014F17A
:104DD000FF3438D303F8012B9D07F8D1032C2BD9CE
:104DE000CDB245EA05250F2C45EA054516D9A4F1B3
:104DF00010073F0903F1200606EB071603F1100226
:104E000042E9045542E902551032B242F8D104F0A9
:104E10000F040137032C03EB07130DD91E4622465E
:104E2000043A032A46F8045BFAD8221F22F0030250
:104E30000432134404F003042CB1C9B21C4403F837
:104E4000011B9C42FBD1F0BC704714460346C5E7EA
:104E5000014800F011BA00BF9C0F0020014800F08B
:104E600013BA00BF9C0F0020024B1B680022C3E94D
:104E70002A027047380000200B4B0C481968D1E912
:104E80002A2330B40A4C00FB02F004FB0300A2FB0F
:104E90000423541C034443F1000525F00040C1E9FC
:104EA0002A4530BC704700BF380000202DF451580F
:104EB0002D7F954C38B5074C0023054608462360E6
:104EC000FFF7A4FB431C00D038BD2368002BFBD0A8
:104ED0002B6038BDB00F0020000000000000000073
:104EE00000000000000000000000000000000000C2
:104EF00000000000000000000000000000000000B2
:104F000090F800F06DE9024520F007016FF0000C09
:104F100010F0070491F820F040F049804FF00004B1
:104F20006FF00700D1E9002391F840F000F108008C
:104F300082FA4CF2A4FA8CF283FA4CF3A2FA8CF3C4
:104F40004BBBD1E9022382FA4CF200F10800A4FA2B
:104F50008CF283FA4CF3A2FA8CF3E3B9D1E904237F
:104F600082FA4CF200F10800A4FA8CF283FA4CF3B6
:104F7000A2FA8CF37BB9D1E9062301F1200182FA70
:104F80004CF200F10800A4FA8CF283FA4CF3A2FA76
:104F90008CF3002BC6D0002A04BF04301A4612BA84
:104FA000B2FA82F2FDE8024500EBD2007047D1E987
:104FB000002304F00305C4F100004FEAC50514F016
:104FC000040F91F840F00CFA05F562EA05021CBFE7
:104FD00063EA050362464FF00004A9E7F8B5244FE1
:104FE0000C460646FFF734FFBB685D68C4F57E617A
:104FF0000F3125F00305294421F47F6121F00F01D1
:10500000A1F58054B4F5805F07DB00213046FFF73F
:1050100051FFBB682B44984204D03046FFF71EFF77
:105020000020F8BD61423046FFF744FF01300DD04B
:10503000104BBA6819682D1B45F001053046091B55
:1050400055601960FFF70AFF0120F8BD00213046C6
:10505000FFF730FFBA68831A0F2BDEDD064C0549D7
:10506000246843F00103001B53600860D5E700BFCC
:1050700068040020C008002070080020002953D0D8
:10508000F8B50C460646FFF7E3FE54F804CC714F22
:105090002CF00101A4F108056B18B8685A68984211
:1050A00022F0030253D01CF0010F5A6003EB020000
:1050B0003BD154F808CC4068A5EB0C0507F1080E6D
:1050C000AC687445614400F0010075D0D5F80CC09F
:1050D000C4F80CC0CCF8084060B341F001036B6029
:1050E0006950B1F5007F50D34B0A042B70D88B095F
:1050F00003F13904E40003F1380238193B59083848
:10510000984278D05A6822F003028A4271D99B688B
:105110009842F7D1C368C5E902039D60C560304677
:10512000BDE8F840FFF79ABE7047406800F0010004
:105130000028D2D19868484C1144A04241F00102A5
:1051400062D0DB68C36098606A606950C9E71CF090
:10515000010F0A4407D154F8083CED1A1A44D5E966
:105160000213CB6099603D4B1B6842F001019342F2
:105170006960BD6004D83A4B30461968FFF72EFFCE
:105180003046BDE8F840FFF769BEC90878684A1C98
:10519000012389108B40034307EBC20157F832000B
:1051A0007B600839C5E9020147F83250C5603046D6
:1051B000BDE8F840FFF752BE002845D10A44D3E9C4
:1051C000021342F00100CB6099606860AA50D7E7F3
:1051D000142B08D9542B1ED80B0B03F16F04E400D9
:1051E00003F16E0289E703F15C04E40003F15B0262
:1051F00083E718468EE793107968012202FA03F3D9
:105200000B437B60034686E7C7E90455C5E9020006
:105210006A606950B4E7B3F5AA7F06D8CB0B03F1F7
:105220007804E40003F1770267E740F254529342B6
:1052300006D88B0C03F17D04E40003F17C025CE7EB
:105240004FF47E747E2258E741F001026A601960D3
:1052500096E700BF68040020700400207408002056
:10526000F0080020704700BF704700BF704700BFC4
:10527000704700BF704700BF704700BF01207047F4
:1052800001207047704700BF704700BF38B50C461B
:105290000968054629B921462846BDE83840FFF788
:1052A000EDBEFFF7F3FF21462846BDE83840FFF783
:1052B000E5BE00BF204B1B6883423BD0C36C70B57A
:1052C00005468BB10026995939B10C682846FFF77D
:1052D000D5FE2146002CF8D1EB6C0436802EF2D19D
:1052E00019462846FFF7CAFE296C11B12846FFF778
:1052F000C5FED5F8481151B105F5A676B14206D0E4
:105300000C682846FFF7BAFEA6422146F8D1696D1F
:1053100011B12846FFF7B2FEAB6B53B1EB6B2846D9
:105320009847D5F8E01221B12846BDE87040FFF754
:10533000ADBF70BD704700BF3800002042424242FE
:1053400042424242000000109300000010010000A1
:1053500012011001020000408B05580010000102EC
:105360000001000009023E00020100803209040031
:1053700000010202010005240010010424020605B8
:1053800024060001070581030800FF09040100024B
:105390000A000000070503024000050705820240DD
:1053A0000005000004030904000000002003490078
:1053B00000004600000058000000200000004300EC
:1053C0000000440000004300000000000000000056
:1053D0005803490000006E000000660000006900EC
:1053E00000006E000000650000006F0000006E000D
:1053F0000000200000005400000065000000630071
:105400000000680000006E0000006F0000006C00EB
:1054100000006F00000067000000690000006500E8
:1054200000007300000000000000000041424344FF
:1054300045464748494A4B4C4D4E4F5051525354A4
:1054400055565758595A6162636465666768696A58
:105450006B6C6D6E6F707172737475767778797A24
:10546000303132333435363738392D5FFFFFFFFFA7
:10547000FFFFFFFFFFFFFFFFFFFFFFFFFFFFFFFF3C
:10548000FFFFFFFFFFFFFFFFFFFFFFFFFFFFFFFF2C
:10549000FFFFFFFFFFFFFFFFFF3EFFFF3435363703
:1054A00038393A3B3C3DFFFFFFFFFFFFFF000102A1
:1054B000030405060708090A0B0C0D0E0F10111244
:1054C00013141516171819FFFFFFFF3FFF1A1B1CB7
:1054D0001D1E1F202122232425262728292A2B2C84
:1054E0002D2E2F30313233FFFFFFFFFFFFFFFFFF75
:1054F000FFFFFFFFFFFFFFFFFFFFFFFFFFFFFFFFBC
:10550000FFFFFFFFFFFFFFFFFFFFFFFFFFFFFFFFAB
:10551000FFFFFFFFFFFFFFFFFFFFFFFFFFFFFFFF9B
:10552000FFFFFFFFFFFFFFFFFFFFFFFFFFFFFFFF8B
:10553000FFFFFFFFFFFFFFFFFFFFFFFFFFFFFFFF7B
:10554000FFFFFFFFFFFFFFFFFFFFFFFFFFFFFFFF6B
:10555000FFFFFFFFFFFFFFFFFFFFFFFFFFFFFFFF5B
:10556000FFFFFFFFFFFFFFFFFFFFFFFF3281D5239C
:10557000980000000000010000000000291600084B
:10558000151D00082D1900083916000851160008CD
:10559000CD1C0008C116000851190008E9170008C1
:1055A000D916000869160008D51B00081D1C000844
:1055B000951700080119000815190008A12000001E
:0855C000000002004000002081
:0855C80040B5FF7F0100000067
:1055D0000000045055100008951100080600000056
:1055E0000000820040000001030040000001810033
:1055F00008000001000000000000000000000000A2
:10560000000000000B00000040000020000000002F
:10561000000000002C03002094030020FC03002065
:10562000000000000000000000000000000000007A
:10563000000000000000000000000000000000006A
:10564000000000000000000000000000000000005A
:10565000000000000000000000000000000000004A
:10566000000000000000000000000000000000003A
:10567000000000000000000000000000000000002A
:10568000000000000000000000000000000000001A
:10569000000000000000000000000000000000000A
:1056A00000000000000000000000000000000000FA
:1056B00000000000000000000100000000000000E9
:1056C0000E33CDAB34126DE6ECDE05000B000000AE
:1056D00000000000000000000000000000000000CA
:1056E00000000000000000000000000000000000BA
:1056F00000000000000000000000000000000000AA
:105700000000000000000000000000000000000099
:105A40006804002068040020700400207004002016
:105A500078040020780400208004002080040020C6
:105A60008804002088040020900400209004002076
:105A70009804002098040020A0040020A004002026
:105A8000A8040020A8040020B0040020B0040020D6
:105A9000B8040020B8040020C0040020C004002086
:105AA000C8040020C8040020D0040020D004002036
:105AB000D8040020D8040020E0040020E0040020E6
:105AC000E8040020E8040020F0040020F004002096
:105AD000F8040020F8040020000500200005002044
:105AE00008050020080500201005002010050020F2
:105AF00018050020180500202005002020050020A2
:105B00002805002028050020300500203005002051
:105B10003805002038050020400500204005002001
:105B200048050020480500205005002050050020B1
:105B30005805002058050020600500206005002061
:105B40006805002068050020700500207005002011
:105B500078050020780500208005002080050020C1
:105B60008805002088050020900500209005002071
:105B70009805002098050020A0050020A005002021
:105B8000A8050020A8050020B0050020B0050020D1
:105B9000B8050020B8050020C0050020C005002081
:105BA000C8050020C8050020D0050020D005002031
:105BB000D8050020D8050020E0050020E0050020E1
:105BC000E8050020E8050020F0050020F005002091
:105BD000F8050020F805002000060020000600203F
:105BE00008060020080600201006002010060020ED
:105BF000180600201806002020060020200600209D
:105C0000280600202806002030060020300600204C
:105C100038060020380600204006002040060020FC
:105C200048060020480600205006002050060020AC
:105C3000580600205806002060060020600600205C
:105C4000680600206806002070060020700600200C
:105C500078060020780600208006002080060020BC
:105C6000880600208806002090060020900600206C
:105C70009806002098060020A0060020A00600201C
:105C8000A8060020A8060020B0060020B0060020CC
:105C9000B8060020B8060020C0060020C00600207C
:105CA000C8060020C8060020D0060020D00600202C
:105CB000D8060020D8060020E0060020E0060020DC
:105CC000E8060020E8060020F0060020F00600208C
:105CD000F8060020F806002000070020000700203A
:105CE00008070020080700201007002010070020E8
:105CF0001807002018070020200700202007002098
:105D00002807002028070020300700203007002047
:105D100038070020380700204007002040070020F7
:105D200048070020480700205007002050070020A7
:105D30005807002058070020600700206007002057
:105D40006807002068070020700700207007002007
:105D500078070020780700208007002080070020B7
:105D60008807002088070020900700209007002067
:105D70009807002098070020A0070020A007002017
:105D8000A8070020A8070020B0070020B0070020C7
:105D9000B8070020B8070020C0070020C007002077
:105DA000C8070020C8070020D0070020D007002027
:105DB000D8070020D8070020E0070020E0070020D7
:105DC000E8070020E8070020F0070020F007002087
:105DD000F8070020F8070020000800200008002035
:105DE00008080020080800201008002010080020E3
:105DF0001808002018080020200800202008002093
